:100000000C9462000C948A000C948A000C948A0070
:100010000C948A000C948A000C948A000C948A0038
:100020000C948A000C948A000C948A000C94880327
:100030000C948A000C948A000C948A000C948A0018
:100040000C943E030C948A000C948A000C948A0051
:100050000C948A000C948A000C948A000C948A00F8
:100060000C948A000C948A00000000080002010031
:100070000003040700000000000000000000000072
:10008000240027002A000000000023002600290089
:1000900000000000250028002B00040404040404D0
:1000A0000404020202020202030303030303010227
:1000B00004081020408001020408102001020408F6
:1000C0001020580411241FBECFEFD8E0DEBFCDBFF3
:1000D00011E0A0E0B1E0EAE3FFE002C005900D927C
:1000E000A230B107D9F721E0A2E0B1E001C01D9232
:1000F000A335B207E1F710E0C2E6D0E004C02197D3
:10010000FE010E949507C136D107C9F70E94130569
:100110000C949B070C94000090E0FC01E255FF4F0B
:10012000249186569F4FFC018491882399F090E09A
:10013000880F991FFC01E458FF4FA591B491FC0171
:10014000E057FF4F859194918FB7F894EC91E22B93
:10015000EC938FBF08958F929F92AF92BF92FF92C0
:100160000F931F93CF93DF93F09036012BE02F1561
:1001700008F44CC02091380108E512E0021B110977
:1001800027FD1395000F111F000F111F209137013C
:10019000C8E8D0E0C21BD10927FDD395CC0FDD1FE5
:1001A000CC0FDD1F4E010D2E000CAA08BB089801D4
:1001B000012E000C440B550B281939094A095B091B
:1001C000DC010E943C0724EB30E040E050E00E945C
:1001D0001207820E931EA41EB51E8C169D062CF0CF
:1001E000E801801691060CF4E4012297CC0FDD1F84
:1001F0002FB7F8948F2D90E0FC01EE0FFF1FE80F52
:10020000F91FE15FFE4FD283C1832FBFDF91CF91F2
:100210001F910F91FF90BF90AF909F908F90089586
:1002200090E0FC01E859FF4F2491FC01E255FF4F9B
:100230003491FC01E656FF4FE491EE23C9F02223EE
:1002400039F0233001F1A8F4213019F1223029F1DD
:10025000F0E0EE0FFF1FE057FF4FA591B4918FB76D
:10026000F894EC91611126C030953E233C938FBFEA
:1002700008952730A9F02830C9F0243049F780913B
:1002800080008F7D03C0809180008F7780938000F5
:10029000DFCF84B58F7784BDDBCF84B58F7DFBCF77
:1002A0008091B0008F778093B000D2CF8091B00062
:1002B0008F7DF9CF3E2BDACFCF93DF9360E08CE0D8
:1002C0000E94100160E088E00E941001C7E0D0E0C9
:1002D00060E084E00E9410018091340190E00C2ED7
:1002E00002C0959587950A94E2F761E080FF60E08F
:1002F00088E00E94100161E084E00E9410012197D3
:1003000038F761E08CE0DF91CF910C9410013FB79A
:10031000F8948091080190910901A0910A01B0918F
:100320000B0126B5A89B05C02F3F19F00196A11D12
:10033000B11D3FBFBA2FA92F982F8827BC01CD012F
:10034000620F711D811D911D42E0660F771F881F8E
:10035000991F4A95D1F708958F929F92AF92BF92BD
:10036000CF92DF92EF92FF924B015C010E948701D6
:100370006B017C010E9487016C197D098E099F0920
:10038000683E734081059105A8F321E0821A910827
:10039000A108B10888EEC80E83E0D81EE11CF11C4C
:1003A00081149104A104B10429F7FF90EF90DF902C
:1003B000CF90BF90AF909F908F900895FC01808167
:1003C000823061F018F4813031F00895833049F0C3
:1003D000843049F008956093B30008956093B400A9
:1003E000089567BD089568BD0895FC01808182303D
:1003F00069F028F423E092E0813051F008958330D1
:1004000011F126E090E0843019F0089524E091E0A5
:100410006230E1F0643079F1613009F03FC041E0D1
:1004200050E0BA0101C0660F9A95EAF78091340155
:10043000862B01C0440F2A95EAF740954823409344
:1004400034010C945C0127E095E0E2CF41E050E0FC
:10045000BA0102C0660F771F9A95E2F7CB0180952B
:1004600090913401892301C0440F2A95EAF7842B27
:1004700080933401E6CF41E050E0FA0102C0EE0F74
:10048000FF1F9A95E2F7CF0101C0440F2A95EAF7C2
:10049000842B8095909134018923EACF089564E0FC
:1004A0008FE391E00E94F50164E08DE391E00E940A
:1004B000F50164E08BE391E00E94F50164E089E3DB
:1004C00091E00C94F5010F931F9366E470E080E0D7
:1004D00090E00E94AC01E0914901F0914A018081D5
:1004E00090914501892B8083E0914701F09148016B
:1004F0009081809145018095892380838BE090E0F5
:100500000197F1F7E0914701F091480180819091C6
:100510004501892B808383E290E00197F1F7E09118
:100520004701F09148019081809145018095892390
:100530008083E0914901F0914A01908180914501C9
:100540008095892380830E948701605B794B8F4F60
:100550009F4F60934F01709350018093510190938E
:100560005201E0914B01F0914C0180819091460144
:10057000892379F00E94870100914F011091500169
:1005800020915101309152010617170728073907AA
:1005900040F7E0914B01F0914C0180819091460130
:1005A000892329F50E94870100914F011091500184
:1005B000209151013091520106171707280739077A
:1005C00040F750E040E030E020E0CA014C9669E39B
:1005D00070E00E948107CB016217730708F4C9011C
:1005E000009711F48AEF90E01F910F9108950E94F7
:1005F000870120914D0130914E01620F731F811DC3
:10060000911D60934F01709350018093510190931D
:100610005201E0914B01F0914C0180819091460193
:10062000892381F00E94870100914F0110915001B0
:1006300020915101309152010617170728073907F9
:1006400040F7BFCF0E94870120914D0130914E01AC
:10065000A9014550510920914F0130915001FA01F3
:10066000E21BF30BAF01460F571F91E080E04115ED
:10067000510509F490E0292F382FA7CF1F920F9230
:100680000FB60F9211242F933F938F939F93AF93A5
:10069000BF938091040190910501A0910601B09152
:1006A00007013091030123E0230F2D3758F5019600
:1006B000A11DB11D209303018093040190930501B6
:1006C000A0930601B0930701809108019091090160
:1006D000A0910A01B0910B010196A11DB11D80935B
:1006E000080190930901A0930A01B0930B01BF91F7
:1006F000AF919F918F913F912F910F900FBE0F90CF
:100700001F90189526E8230F0296A11DB11DD2CF88
:100710001F920F920FB60F9211242F933F934F9376
:100720005F936F937F938F939F93AF93BF93CF9379
:10073000DF93EF93FF9380910201C0913301D0E0EA
:1007400087FF24C0109285001092840080910201DE
:100750008F5F8093020180910201082E000C990B9B
:100760008C179D0724F4809102018C30C4F1809194
:10077000840090918500049680349C4908F47AC0E6
:100780008091840090918500049676C0809102014A
:10079000082E000C990B8C179D07C4F6E0910201FE
:1007A0008E2FEE0F990BFC01EE0FFF1FE80FF91FC4
:1007B000E15FFE4F808186FFC9CFE09102018E2F5D
:1007C000EE0F990BFC01EE0FFF1FE80FF91FE15F21
:1007D000FE4F808160E08F730E941001B7CF20919F
:1007E000840030918500E09102018E2FEE0F990B6D
:1007F000FC01EE0FFF1FE80FF91FE15FFE4F818143
:100800009281820F931F9093890080938800E091DA
:1008100002018E2FEE0F990BFC01EE0FFF1FE80F68
:10082000F91FE15FFE4F808186FF11C0E091020158
:100830008E2FEE0F990BFC01EE0FFF1FE80FF91F33
:10084000E15FFE4F808161E08F730E941001FF9194
:10085000EF91DF91CF91BF91AF919F918F917F9158
:100860006F915F914F913F912F910F900FBE0F901D
:100870001F90189580E49CE99093890080938800EC
:100880008FEF80930201E3CF8CE00E948C0087E021
:100890000E948C0088E00E948C0084E00E948C0002
:1008A000109234010E945C0160E087E00C9410011A
:1008B000CF93DF9310923501ECEBF0E0E491E093FD
:1008C0004501EDEBF0E0E491E093460188EA90E029
:1008D000FC012491E22FF0E0EE0FFF1FE057FF4FE5
:1008E000259134913093480120934701E9EAF0E0E3
:1008F000E491F0E0EE0FFF1FEA57FF4F259134918E
:1009000030934C0120934B01FC018491E82FF0E0DF
:10091000EE0FFF1FE458FF4F8591949190934A0189
:100920008093490184EA9CE290934E0180934D01AB
:1009300081E080933F01C4E0C09340010E944404E1
:1009400080913401837F809334010E945C01809107
:10095000B00083688093B000C093B1001092B300E0
:100960008BE00E948C0082E080933D01C0933E01A9
:100970000E944404809134018D7E809334010E9452
:100980005C018091B00083628093B000C093B1009D
:100990001092B40083E00E948C00D3E0D0933B011E
:1009A000D0933C010E944404809134018F75809360
:1009B00034010E945C0184B5836884BD17BC86E065
:1009C0000E948C00C0933901D0933A010E944404E4
:1009D000809134018E7B809334010E945C0184B548
:1009E000836284BD18BC85E00E948C008091330135
:1009F0008C30A8F491E0980F9093330180933601E6
:100A000090E0FC01EE0FFF1FE80FF91FE15FFE4FC2
:100A100088EB9BE092838183DF91CF9108958FEFE4
:100A200080933601F9CF789484B5826084BD84B513
:100A3000816084BD85B5826085BD85B5816085BDD9
:100A400080916E00816080936E0010928100809191
:100A50008100826080938100809181008160809319
:100A60008100809180008160809380008091B1003E
:100A700084608093B1008091B00081608093B00069
:100A800080917A00846080937A0080917A008260FD
:100A900080937A0080917A00816080937A008091BF
:100AA0007A00806880937A001092C10080913601AC
:100AB0008C3008F050C08AE00E948C008091360192
:100AC000282F30E0F901EE0FFF1FE20FF31FE15F67
:100AD000FE4F9081907C9A60908310923701109223
:100AE00038012CE0622F0E947507829FB00111240B
:100AF00030E020E0AB01420F531FFA01EE0FFF1F61
:100B0000E40FF51FE15FFE4F908196FD16C02F5F49
:100B10003F4F2C30310571F781110FC010928000CA
:100B200082E0809381001092850010928400B19A37
:100B300080916F00826080936F00E09136018E2F6C
:100B400090E0FC01EE0FFF1FE80FF91FE15FFE4F81
:100B500080818064808383E790E00E94AB0060ED39
:100B600077E080E090E00E94AC010E94630264E6BE
:100B700070E080E090E00E94AC010E94630264E6B5
:100B800070E080E090E00E94AC010E94630264E6A5
:100B900070E080E090E00E94AC010E9463029093BC
:100BA00001018093000164E670E080E090E00E9423
:100BB000AC0100E010E0FF24F39468E270E080E014
:100BC00090E00E94AC01809100019091010140975A
:100BD0000CF0E2C00E944F0264E670E080E090E01A
:100BE0000E94AC0110920E0162E08FE391E00E943E
:100BF000F50162E08DE391E00E94F50162E08BE394
:100C000091E00E94F50162E089E391E00E94F50124
:100C100010920D0110920C01C0910C01D0910D01A8
:100C2000CE3BD10504F56C2F8FE391E00E94DE01ED
:100C30006C2F8DE391E00E94DE016C2F8BE391E03D
:100C40000E94DE016C2F89E391E00E94DE0165E0E5
:100C500070E080E090E00E94AC012296D0930D01FC
:100C6000C0930C01D9CF6CE271E080E090E00E946B
:100C7000AC010E944F0268EC70E080E090E00E94BE
:100C8000AC0182E390E00E94AB0064EF71E080E091
:100C900090E00E94AC010E946302EC0164E670E007
:100CA00080E090E00E94AC0183E790E00E94AB00FE
:100CB00068EC70E080E090E00E94AC018AEA90E08D
:100CC0000E94AB0064EF71E080E090E00E94AC0114
:100CD0000E9463026C0164E670E080E090E00E9494
:100CE000AC0183E790E00E94AB0068EC70E080E02C
:100CF00090E00E94AC01CC15DD05ECF161E08FE3E2
:100D000091E00E94F50161E08DE391E00E94F50120
:100D100062E08BE391E00E94F50162E089E391E0FB
:100D20000E94F50164EF71E080E090E00E94AC0168
:100D300061E08FE391E00E94F50161E08DE391E0D5
:100D40000E94F50161E08BE391E00E94F50161E012
:100D500089E391E00E94F5010E944F020E94630224
:100D600090930101809300010115110509F425CF2D
:100D70000E94000022CF62E08FE391E00E94F50123
:100D800062E08DE391E00E94F50161E08BE391E088
:100D90000E94F50161E0C2CF80910E018111DECF8A
:100DA000F0920E0161E08FE391E00E94F50161E0B5
:100DB0008DE391E00E94F50161E08BE391E00E94F8
:100DC000F50161E089E391E00E94F50110920D01C7
:100DD00010920C01C0910C01D0910D01CE3BD105B8
:100DE0000CF0BCCF6C2F8FE391E00E94DE016C2FE2
:100DF0008DE391E00E94DE016C2F8BE391E00E9475
:100E0000DE016C2F89E391E00E94DE0165E070E075
:100E100080E090E00E94AC012296D0930D01C09337
:100E20000C01D8CF052E97FB1EF400940E942907D1
:100E300057FD07D00E94440707FC03D04EF40C94E2
:100E4000290750954095309521953F4F4F4F5F4F63
:100E5000089590958095709561957F4F8F4F9F4F26
:100E600008950E946607A59F900DB49F900DA49FC2
:100E7000800D911D11240895B7FF0C9431070E9435
:100E80003107821B930B0895A1E21A2EAA1BBB1BEC
:100E9000FD010DC0AA1FBB1FEE1FFF1FA217B30746
:100EA000E407F50720F0A21BB30BE40BF50B661F5C
:100EB000771F881F991F1A9469F760957095809520
:100EC00090959B01AC01BD01CF010895A29FB00197
:100ED000B39FC001A39F700D811D1124911DB29F6E
:100EE000700D811D1124911D0895991B79E004C096
:100EF000991F961708F0961B881F7A95C9F7809559
:100F00000895AA1BBB1B51E107C0AA1FBB1FA61750
:100F1000B70710F0A61BB70B881F991F5A95A9F7A2
:100F200080959095BC01CD010895EE0FFF1F0590AF
:0A0F3000F491E02D0994F894FFCF2E
:020F3A00640051
:00000001FF
